{
  "contractName": "TodoList",
  "abi": [
    {
      "inputs": [],
      "stateMutability": "nonpayable",
      "type": "constructor"
    },
    {
      "anonymous": false,
      "inputs": [
        {
          "indexed": false,
          "internalType": "uint256",
          "name": "id",
          "type": "uint256"
        },
        {
          "indexed": false,
          "internalType": "string",
          "name": "content",
          "type": "string"
        },
        {
          "indexed": false,
          "internalType": "bool",
          "name": "completed",
          "type": "bool"
        }
      ],
      "name": "TaskCreated",
      "type": "event"
    },
    {
      "anonymous": false,
      "inputs": [
        {
          "indexed": false,
          "internalType": "uint256",
          "name": "id",
          "type": "uint256"
        }
      ],
      "name": "TaskDeleted",
      "type": "event"
    },
    {
      "inputs": [],
      "name": "owner",
      "outputs": [
        {
          "internalType": "address",
          "name": "",
          "type": "address"
        }
      ],
      "stateMutability": "view",
      "type": "function",
      "constant": true
    },
    {
      "inputs": [],
      "name": "taskCount",
      "outputs": [
        {
          "internalType": "uint256",
          "name": "",
          "type": "uint256"
        }
      ],
      "stateMutability": "view",
      "type": "function",
      "constant": true
    },
    {
      "inputs": [
        {
          "internalType": "uint256",
          "name": "",
          "type": "uint256"
        }
      ],
      "name": "tasks",
      "outputs": [
        {
          "internalType": "uint256",
          "name": "id",
          "type": "uint256"
        },
        {
          "internalType": "string",
          "name": "content",
          "type": "string"
        },
        {
          "internalType": "bool",
          "name": "completed",
          "type": "bool"
        }
      ],
      "stateMutability": "view",
      "type": "function",
      "constant": true
    },
    {
      "inputs": [
        {
          "internalType": "string",
          "name": "_content",
          "type": "string"
        }
      ],
      "name": "createTask",
      "outputs": [],
      "stateMutability": "nonpayable",
      "type": "function"
    },
    {
      "inputs": [
        {
          "internalType": "uint256",
          "name": "_taskId",
          "type": "uint256"
        }
      ],
      "name": "completeTask",
      "outputs": [],
      "stateMutability": "nonpayable",
      "type": "function"
    }
  ],
  "bytecode": "0x608060405234801561001057600080fd5b50336000806101000a81548173ffffffffffffffffffffffffffffffffffffffff021916908373ffffffffffffffffffffffffffffffffffffffff1602179055506000600181905550610a19806100686000396000f3fe608060405234801561001057600080fd5b50600436106100575760003560e01c8063111002aa1461005c5780638d977672146100785780638da5cb5b146100aa578063b6cb58a5146100c8578063e1e29558146100e6575b600080fd5b61007660048036038101906100719190610582565b610102565b005b610092600480360381019061008d91906105c3565b610268565b6040516100a19392919061076e565b60405180910390f35b6100b2610327565b6040516100bf91906106f8565b60405180910390f35b6100d061034b565b6040516100dd9190610753565b60405180910390f35b61010060048036038101906100fb91906105c3565b610351565b005b60008054906101000a900473ffffffffffffffffffffffffffffffffffffffff1673ffffffffffffffffffffffffffffffffffffffff163373ffffffffffffffffffffffffffffffffffffffff1614610190576040517f08c379a000000000000000000000000000000000000000000000000000000000815260040161018790610713565b60405180910390fd5b600160008154809291906101a3906108e5565b91905055506040518060600160405280600154815260200182815260200160001515815250600260006001548152602001908152602001600020600082015181600001556020820151816001019080519060200190610203929190610462565b5060408201518160020160006101000a81548160ff0219169083151502179055509050507f05d0fb833127fc08168556d0e7ca9554fc3f6bc843b3b7d2bf1c35aea6bab66060015482600060405161025d9392919061076e565b60405180910390a150565b6002602052806000526040600020600091509050806000015490806001018054610291906108b3565b80601f01602080910402602001604051908101604052809291908181526020018280546102bd906108b3565b801561030a5780601f106102df5761010080835404028352916020019161030a565b820191906000526020600020905b8154815290600101906020018083116102ed57829003601f168201915b5050505050908060020160009054906101000a900460ff16905083565b60008054906101000a900473ffffffffffffffffffffffffffffffffffffffff1681565b60015481565b60008054906101000a900473ffffffffffffffffffffffffffffffffffffffff1673ffffffffffffffffffffffffffffffffffffffff163373ffffffffffffffffffffffffffffffffffffffff16146103df576040517f08c379a00000000000000000000000000000000000000000000000000000000081526004016103d690610713565b60405180910390fd5b6000811180156103f157506001548111155b610430576040517f08c379a000000000000000000000000000000000000000000000000000000000815260040161042790610733565b60405180910390fd5b60016002600083815260200190815260200160002060020160006101000a81548160ff02191690831515021790555050565b82805461046e906108b3565b90600052602060002090601f01602090048101928261049057600085556104d7565b82601f106104a957805160ff19168380011785556104d7565b828001600101855582156104d7579182015b828111156104d65782518255916020019190600101906104bb565b5b5090506104e491906104e8565b5090565b5b808211156105015760008160009055506001016104e9565b5090565b6000610518610513846107dd565b6107ac565b90508281526020810184848401111561053057600080fd5b61053b848285610871565b509392505050565b600082601f83011261055457600080fd5b8135610564848260208601610505565b91505092915050565b60008135905061057c816109cc565b92915050565b60006020828403121561059457600080fd5b600082013567ffffffffffffffff8111156105ae57600080fd5b6105ba84828501610543565b91505092915050565b6000602082840312156105d557600080fd5b60006105e38482850161056d565b91505092915050565b6105f581610829565b82525050565b6106048161083b565b82525050565b60006106158261080d565b61061f8185610818565b935061062f818560208601610880565b610638816109bb565b840191505092915050565b6000610650602583610818565b91507f4f6e6c7920746865206f776e65722063616e2063616c6c20746869732066756e60008301527f6374696f6e0000000000000000000000000000000000000000000000000000006020830152604082019050919050565b60006106b6600f83610818565b91507f496e76616c6964207461736b20494400000000000000000000000000000000006000830152602082019050919050565b6106f281610867565b82525050565b600060208201905061070d60008301846105ec565b92915050565b6000602082019050818103600083015261072c81610643565b9050919050565b6000602082019050818103600083015261074c816106a9565b9050919050565b600060208201905061076860008301846106e9565b92915050565b600060608201905061078360008301866106e9565b8181036020830152610795818561060a565b90506107a460408301846105fb565b949350505050565b6000604051905081810181811067ffffffffffffffff821117156107d3576107d261098c565b5b8060405250919050565b600067ffffffffffffffff8211156107f8576107f761098c565b5b601f19601f8301169050602081019050919050565b600081519050919050565b600082825260208201905092915050565b600061083482610847565b9050919050565b60008115159050919050565b600073ffffffffffffffffffffffffffffffffffffffff82169050919050565b6000819050919050565b82818337600083830152505050565b60005b8381101561089e578082015181840152602081019050610883565b838111156108ad576000848401525b50505050565b600060028204905060018216806108cb57607f821691505b602082108114156108df576108de61095d565b5b50919050565b60006108f082610867565b91507fffffffffffffffffffffffffffffffffffffffffffffffffffffffffffffffff8214156109235761092261092e565b5b600182019050919050565b7f4e487b7100000000000000000000000000000000000000000000000000000000600052601160045260246000fd5b7f4e487b7100000000000000000000000000000000000000000000000000000000600052602260045260246000fd5b7f4e487b7100000000000000000000000000000000000000000000000000000000600052604160045260246000fd5b6000601f19601f8301169050919050565b6109d581610867565b81146109e057600080fd5b5056fea2646970667358221220309a21512bd351de0cdd90c0d0be4308e4cadd120bdbf78fa89665b58a261b1b64736f6c63430008000033",
  "immutableReferences": {},
  "source": "pragma solidity ^0.8.0;\r\n\r\ncontract TodoList {\r\n    address public owner;\r\n    uint public taskCount;\r\n\r\n    struct Task {\r\n        uint id;\r\n        string content;\r\n        bool completed;\r\n    }\r\n\r\n    mapping(uint => Task) public tasks;\r\n\r\n    event TaskCreated(uint id, string content, bool completed);\r\n    event TaskDeleted(uint id);\r\n\r\n    constructor() {\r\n        owner = msg.sender;\r\n        taskCount = 0;\r\n    }\r\n\r\n    modifier onlyOwner() {\r\n        require(msg.sender == owner, \"Only the owner can call this function\");\r\n        _;\r\n    }\r\n\r\n    function createTask(string memory _content) public onlyOwner {\r\n        taskCount++;\r\n        tasks[taskCount] = Task(taskCount, _content, false);\r\n        emit TaskCreated(taskCount, _content, false);\r\n    }\r\n\r\n    function completeTask(uint _taskId) public onlyOwner {\r\n        require(_taskId > 0 && _taskId <= taskCount, \"Invalid task ID\");\r\n        tasks[_taskId].completed = true;\r\n    }\r\n\r\n}\r\n",
  "sourcePath": "C:\\Users\\luisL\\Documents\\Eth\\todo-list\\contracts\\TodoList.sol",
  "compiler": {
    "name": "solc",
    "version": "0.8.0+commit.c7dfd78e.Emscripten.clang"
  },
  "schemaVersion": "3.4.16",
  "updatedAt": "2023-12-13T06:54:08.808Z",
  "networkType": "ethereum",
  "devdoc": {
    "kind": "dev",
    "methods": {},
    "version": 1
  },
  "userdoc": {
    "kind": "user",
    "methods": {},
    "version": 1
  }
}